:020000040000FA
:1000000000400020019001003D9001003F90010060
:1000100000000000000000000000000000000000E0
:1000200000000000000000000000000041900100FE
:100030000000000000000000439001004590010016
:10004000479001007949010049970100479001005C
:10005000479001000000000001910100479001005D
:10006000614B0000A59C0100BD9501004790010077
:100070004790010047900100479001004790010020
:100080004790010047900100479001004790010010
:1000900047900100658D0100418D01009D4C0000DD
:1000A000AD4C00004790010000000000000000007F
:1000B0000000000000000000000000000000000040
:1000C0000448054B10B5834203D0044B002B00D0ED
:1000D000984710BD1401002014010020000000000A
:1000E00006480749091A8B10C90FC91810B54910DD
:1000F00003D0044B002B00D0984710BD1401002002
:10010000140100200000000010B5074C2378002BDC
:1001100009D1FFF7D5FF054B002B02D0044800E0C2
:1001200000BF0123237010BD20010020000000004B
:1001300054940300054B10B5002B03D00449054827
:1001400000E000BFFFF7CCFF10BDC046000000007C
:100150002401002054940300402292029A1A9246ED
:100160007047C046154B002B00D1114B9D46FFF741
:10017000F3FF00218B460F461148124A121A20F055
:10018000D3FC0C4B002B00D098470B4B002B00D01E
:1001900098470020002104000D000B4820F0D8F9FA
:1001A00020F086FB2000290029F067FB20F0EEF903
:1001B00000000800000000000000000000400020D7
:1001C00018010020E02F0020F907020070B511F09F
:1001D0002BFF0F4C0F4B0025A3620F4BE5626363AF
:1001E00023000321A8330D481D60A564256304F096
:1001F00091F90B4E0121300004F08CF93000094ACE
:10020000094922F081FC26606660E56570BDC04644
:10021000802E0020F0EC0200549F0200B82E002037
:10022000CC2E0020760F0000860F000070B506244B
:10023000134EC3001C437368002205002100181DE3
:100240000BF070FF021E18D1F06D002807D02100BE
:1002500004300BF067FF002801D0406870BD002219
:10026000210008480BF05EFF021E06D12A00064955
:10027000064813F0A1FF04F07DFF5068EEE7C0468A
:10028000802E0020A8B7020060080300A4ED020041
:100290000A4B10B5040009CB98420AD00621E300AE
:1002A0000022194304300BF03DFF002801D04068C4
:1002B00010BD2000FFF7BAFFFAE7C046802E0020ED
:1002C000074B10B5D86D002801D1064810BD00229B
:1002D000054904300BF026FF0028F6D04068F5E70A
:1002E000802E002070B60200DE0E00000A000621FB
:1002F00010B5034BC0000143186822F005FC10BD87
:10030000802E0020062110B5034BC0000143186861
:1003100022F004FC10BDC046802E00200A000621F9
:1003200010B5034BC0000143586822F0EDFB10BD2F
:10033000802E0020062110B5034BC00001435868F1
:1003400022F0ECFB10BDC046802E002037B5050022
:100350000C00062806D1080008F012F800281DD06D
:100360002D483EBD012001421ED04B10032D08D860
:100370000800012DF5D8002D0ED0DB435B000120D5
:1003800010E0042DF9D1C0221206934208D180203A
:10039000C00527F077FBE4E7002BE1D01F48E0E73A
:1003A0005B425B001843DCE7022D1AD11C4B0B406B
:1003B000062B08D08B0714D10A681A4B92699A420F
:1003C0000FD1486802E0C80826F0FBFA002806D1E1
:1003D00001A920000EF0E0FF019911F013FE430087
:1003E000CDE7200007F0AAFD4369002B0DD10E4B8D
:1003F0002000AD00ED5823F049F82A0003000B4916
:100400000B4813F0D9FE04F0B5FE210028009847F0
:100410000028A6D1EBE7C04654D902005CD90200FF
:10042000070080FF7501010008D30200790803006E
:1004300084EF0200F7B5040015001E00019107F0DB
:100440007DFD0769002F05D033002A0020000199A7
:10045000B847FEBD200023F019F803490200034805
:1004600013F0AAFE04F086FE9708030084EF020052
:10047000F8B50E0015001C00930714D113681E4A2E
:10048000934202D16B682360F8BD1C4A934207D1A6
:10049000002802D007F052FD06006B6848C4F3E75D
:1004A000174A934201D12560EEE75A6802211700EE
:1004B0008F4314498F4202D013498A42F3D1002856
:1004C00017D1124A93420BD0114A934208D0114AD5
:1004D000934205D0104A934202D0104A934208D169
:1004E0000C2027F027FB0E4B4660036085602060E0
:1004F000CAE725606060C7E754D2020018D2020044
:10050000CCD20200450200001A0200009CF6020054
:10051000D8F6020014F7020050F702008CF7020030
:10052000C09C0200F8B500231360536006000D0064
:10053000140007F003FDF92307005B009D4205D17D
:10054000836A002B02D00F4B48C4F8BDFB69002B17
:1005500004D02200290030009847F6E7B86B002845
:10056000F3D00621ED001A00294304300BF0DAFD28
:100570000028EAD04268230039003000FFF778FFF6
:10058000E3E7C04638B7020070B5160004000D005E
:10059000FFF7C8FF3368002B15D10B4EA3070BD113
:1005A0000A4B22689A4207D12B0062680849300042
:1005B00013F002FE04F0DEFD200022F067FF2B00A6
:1005C00002000449F3E770BDD4EA0200CCD2020075
:1005D000B3080300DA08030073B504000D00160029
:1005E00007F0ACFCC369002B09D00422290000925B
:1005F00020006A4601969847009B002B0AD02000F5
:1006000022F044FF2B0002000349044813F0D4FDFC
:1006100004F0B0FD73BDC046DA080300D4EA02005E
:1006200073B505000C0007F089FC174B426A060001
:100630009A4226D0002C03D1102027F07BFA040028
:10064000736A002B12D1E6216A462800FF31FFF7BA
:1006500069FF009B002B0FD1280022F017FF0B49E8
:1006600002000B4813F0A8FD04F084FD21002800CF
:1006700098470028E7D076BD2100684610F072FB4D
:10068000F9E72800F7E7C046B9340200FC08030088
:1006900084EF020037B5040007F050FC856A002D96
:1006A00002D02000A8473EBDF9216A46200049003B
:1006B000FFF738FF009B002B05D06A462900280071
:1006C00021F0B9FDEFE7200022F0E0FE034902002F
:1006D000034813F071FD04F04DFDC04618090300F6
:1006E00084EF020030B505008FB014F0EDFB280058
:1006F00007F024FC846A002C05D02800A0470400E1
:1007000020000FB030BDF9216A4628004900FFF7EC
:1007100009FF009B002B16D002A804F005FD00285D
:1007200007D16A46010021F086FD040004F01AFD9D
:10073000E6E7039B084918680EF034FC0028DFD177
:10074000039804F017FD280022F0A0FE03490200E0
:10075000034813F031FDF4E7D0EE0200180903005E
:1007600084EF0200F0B513688FB0041E079300D029
:1007700077E0131D0393FF220B00090A1340114079
:1007800001934B000693069A019B05919B18039ACF
:100790009B00D2580492039AD3185F68381E09D080
:1007A0000020BB0706D1964B3A689A4202D1380026
:1007B00022F0A7F9059B1818049B4500002B55D182
:1007C000019B581C4519A80027F0B4F902940600B3
:1007D000002C02D0012304600293029B039998002D
:1007E000019B30189A0020F0EDF8019A029B944684
:1007F00063440293029B9800059B3018DA00019B2A
:100800009900039B591820F0DDF8029A069B944644
:1008100063440193002F14D0032403233C401F4260
:1008200000D0ACE0764B3A689A4200D0A7E038009E
:1008300022F07FF90323050003936B689C4200D2EA
:1008400080E0019B029A02999A1A52083300079895
:10085000FFF7F0FD0400300027F09BF920000FB0F7
:10086000F0BD130008335468039384E7049B9B078F
:1008700033D1049B634A1B68934202D0624A93427D
:100880002BD104980AAA09A907F0E0FC099B581C7F
:10089000019BC0184519A80027F04CF902940600E6
:1008A000002C02D0012304600293029B039998005C
:1008B000019B30189A0020F085F8019B029A0A9952
:1008C0009818099B80009A00301820F07BF8099A4C
:1008D000019B9B18029A9B188BE7019B181D4519D9
:1008E000A80027F027F902940600002C02D001236B
:1008F00004600293029B03999800019B30189A00B0
:1009000020F060F8019A029B9446049863440AA977
:100910000293FFF785FE04900498FFF7E3FE041EA0
:1009200000D167E7029B9D4205D83000E90027F01F
:100930001FF906006D00029B9B009C51029B013336
:100940000293E9E7AB68E700D859002815D00428DE
:1009500013D0039B184205D12C4B02689A4201D157
:1009600025F042FD019B019A9B00F050023201925A
:10097000AA68F318D7197A685A6001345DE738001D
:1009800023490AAAFFF700FE00210AAA080021F065
:1009900052FC0021FFF744FE03900398FFF7A2FEEC
:1009A000041E00D14DE7019B01339D4208D86D0024
:1009B000042D00D204253000A90027F0D9F8060044
:1009C00003231C4207D1114B22689A4203D1200015
:1009D00025F00AFD0400E62138000AAAFF31FFF7DE
:1009E000D3FD0AAA002101200C9421F024FC019BD4
:1009F000019A9B00F4500232F31801925860CCE740
:100A0000FCA702005C9F020078BB020028F40200F1
:100A10006B02000070B50C00150086B083071AD178
:100A200003681F4A934202D01E4A934213D102AA7E
:100A300001A907F00BFC019BA34229D319D8029B03
:100A4000A4001C19211FA34201D106B070BD0A6881
:100A50000C0004C5F6E702A9FFF7E2FD002306003B
:100A60000193019B3000A34206D3FFF73BFE002811
:100A7000EBD022000C490DE0FFF734FE002807D030
:100A8000019AD3431B199B00013258510192E8E7A8
:100A9000019A0649064813F08FFB04F06BFBC04631
:100AA0005C9F020078BB02005A090300370903006B
:100AB000FCEF0200F7B5FF260D00090A35401400CF
:100AC0000E4083072BD10368354A934202D0354A42
:100AD000934224D1694601AA07F0B8FB0098AB19EC
:100AE000834255D801998300B200CB18A218043B69
:100AF00094420DD1AF00401BC919801B22F051FE5A
:100B0000019B2060DF193A1F0434BB4203D1F7BDBB
:100B10001F6880C4EBE7116817002160F3E700212C
:100B2000FFF77EFD002307000093009BAB4219D323
:100B30000021080022F035FE05003800FFF7D2FD45
:100B4000011E1CD1AB68B34222D3B200A418991B7A
:100B500025608A009B00043C9A4214D1280022F0B0
:100B60003CFED4E73800FFF7BDFD002810D0009A06
:100B7000AB1A9B199B00013218510092D5E728004F
:100B800008F084FBD9E7E868805804322060E2E787
:100B9000009A0549054813F00FFB04F0EBFAC04634
:100BA0005C9F020078BB020037090300FCEF0200E3
:100BB000F0B591B01D0006000C00170007F0BEF95B
:100BC000334B984207D12B003A002100300001F04E
:100BD000E7FE11B0F0BD826A2E4B002A08D09C427D
:100BE00030D13000904728600028F2D00120F0E793
:100BF0009C4227D1F921300001AA4900FFF792FC5D
:100C0000019B002B0DD1D721300001AA4900FFF72D
:100C1000BBFC03940021012001AA21F00CFB2860F9
:100C2000E4E704A804F080FA002807D1010001AA33
:100C300021F001FB286004F095FAD7E7059B2B60B3
:100C40000220C6E7002CDED1380007F077F9124900
:100C50000EF0A8F901AA00280ED030000F49FFF7C6
:100C600061FC019B002B10D02100200001AA21F083
:100C7000E2FA28602000ACE730000949FFF752FC97
:100C8000019B002B01D00397C4E72F60D8E7C04633
:100C90004CA00200E0F10200C4EB020019020000C7
:100CA000CD02000010B5040013F0CEFA002808D0E1
:100CB000002320001A001900FFF7BCFB04002000ED
:100CC00010BD200026F036FE0028F8D10249034866
:100CD00026F02CFEF2E7C0468209030084EF0200F2
:100CE0007FB5C30006201843054B019004910520F1
:100CF00001A90293039305920CF0C8FB07B000BD55
:100D0000E0F102001423F0B58DB000AFFA18050031
:100D10000C00FFF707FCBB69002B06D022002C4912
:100D20002C4813F049FA04F025FA786900284BD1D1
:100D3000280024F044FA0028F0D01423F821FA18EF
:100D400028004900FFF7EEFB10227869B9180EF071
:100D50003FFFB860200025F039FE6A463E69B96859
:100D6000731C7B60C318FB600733DB08DB00D31AFE
:100D70009D466D46320028001FF024FE2E23AB5501
:100D80007B682000EE1825F026FEB860200025F0D4
:100D90001DFEB968020030001FF014FEF96828003B
:100DA00011F084F9C300062018430B4B10223B625C
:100DB0007B620A4BBA18BB620123FB620B33F861FA
:100DC000D11805200CF062FBBD460DB0F0BDC04649
:100DD000AC09030000EC0200E0F102005CD9020063
:100DE000F0B5174C0F00616895B0039121680600BB
:100DF00008A804916260236004F096F9051E06D0ED
:100E0000039B09986360049B236004F0B3F9336883
:100E10003A00310005A8019310F038FB2B002A009E
:100E2000019905A80AF05EFF21F0F6F9050004F02B
:100E300099F92800039B6360049B236015B0F0BD03
:100E4000802E002010B5040005F094F8031E05481C
:100E500002D0054921F02CFA2200044913F0ACF924
:100E600004F088F968ED0200C2090300EB090300F1
:100E7000010010B5014821F01BFAC046FCEF02004A
:100E8000F0B58BB00F0004900392202803D191425B
:100E90000FD0B04DC0E0049B1B2B01D01E2B0DD1F9
:100EA0003800039907F0DCF8049B002803D01B2BC3
:100EB000EFD1A94DB0E01B2BFBD1EAE7049B212B1E
:100EC00040D1039813F0C0F9002806D038000399E8
:100ED00026F036FD0028ECD1DBE70323039D039ABF
:100EE0001D401A4204D112689C4B05929A4223D0AD
:100EF000049B98009A4BC558380022F0C7FA0400AA
:100F0000039822F0C3FA230000902A0095499648DE
:100F100013F052F948E1039BAA0008339C582000C3
:100F200013F092F9002800D159E12100380026F091
:100F300007FD0028BDD10135039B5B680593AB42DB
:100F4000E9D8A6E70123194200D117E1039A4E1010
:100F50001A4200D1E9E0049B54101D2BC8D8180098
:100F600018F0C4FF1E0028002A002D0045004C0088
:100F70004E0050005D0066007B008300B6001E003E
:100F800028002A002D0045004C004E0050005D0056
:100F900066007B008300CE00D200C6FFD600DA00D8
:100FA00026433700780003007B4000D5B8E00125D8
:100FB000054331E06640F4E734402700F2E7002CB7
:100FC00002DA6A48FFF754FF1F2C0ADC684B234102
:100FD000B34206DBC02337001B062341A740B342C0
:100FE000E0DD3000F11726F03EFD070048E0002C60
:100FF000E7DB1F2C00DD1F242641D2E73719D1E79C
:10100000371BCFE72100300010F010F90028E8D19D
:10101000012566437600354328000BB0F0BD002C57
:1010200000D1DEE02100300025F083FA0700B9E7A7
:10103000002C00D1D5E030001AF0D2F8051C2000B9
:101040001AF0CEF8011C281C19F0E8FB0323022536
:101050009843484B0543ED18DEE7002C00D1C0E073
:101060002100300025F056FAE0E7002C2DDA3000A0
:101070001AF0B6F80323022798433E4B0743FF18A4
:10108000380006F05BFF8369002B00D130E73900A0
:10109000039A0498984759E001231C4206D029007E
:1010A000380010F0C3F800289BD16F43012C00D109
:1010B00078E729002800641010F0B8F8002800D064
:1010C0008FE76D43002CE7D16CE735000127F9E786
:1010D000002C00D185E00021022001F0D9FA210086
:1010E0000500300025F025FA012740003843A860AC
:1010F0002100300025F00EFAB8400743EF608BE77F
:10110000A64200DAD5E6C4E6A64200DDD1E6C0E696
:10111000A64200DCCDE6BCE6A64200DBC9E6B8E6A6
:10112000380026F0AFFC050076E70323039A13404E
:10113000022B23D1104B1340062B1FD030001AF086
:101140004FF8039A011C049814F0D4F9051E00D03E
:1011500062E7CDE654D902005CD902005C9F020030
:1011600080D102002E0A030084EF0200190A030056
:10117000FFFFFF3F00008080070080FF049B1F2BC4
:1011800000D07DE7039806F0D9FE83690600002BA6
:101190000CD1736A002B11D1039822F077F913490F
:1011A0000200134813F008F803F0E4FF3A00039933
:1011B00004989847051E00D02EE7EAE7039806A991
:1011C000FFF72EFA04002000FFF78CFA002800D168
:1011D0005FE6390006F044FF0028F4D069E6039486
:1011E00086E60449044821F063F8C046FC08030081
:1011F00084EF0200530A030038F00200010010B52A
:10120000014821F055F8C04684EF0200F8B504000B
:101210000D0017001E00002908D0186806F08EFE89
:101220006368834202D00548FFF7E8FF33003A00C5
:101230002900A068FFF7FEF8F8BDC046640A030065
:1012400001214000014310B5024826F068FB03F07D
:1012500091FFC0461CEE0200010010B5014821F0CC
:1012600027F8C046E0ED020010B5034B186827F0E0
:1012700032F926F007FC10BDFC29002010B5034B05
:10128000186827F02FF926F0FDFB10BDFC2900207F
:1012900010B5034B186827F02CF926F0F3FB10BDAE
:1012A000FC2900201FB50021032001F0F1F90A4BB1
:1012B0000400196801A827F001F9019826F0E2FB63
:1012C000A060029826F0DEFBE060039826F0DAFBCF
:1012D0002061200004B010BDFC29002010B50EF0E4
:1012E00043F803000020064A81008958994205D03E
:1012F00001300C28F8D10348FFF7BAFD10BDC046F5
:10130000249D02007C0A0300094A70B51378002B63
:101310000DD1084C2378DDB2002B08D101331370B6
:101320002370054B186803685B689847257070BD8B
:10133000C62D0020C72D0020FC29002010B5FFF786
:10134000E3FF054B186827F0F5F8044B8000C358FD
:101350000620DB00184310BDFC290020249D02005C
:1013600010B50800FFF7BAFF0400FFF7CDFF054BEB
:10137000186827F0DFF8044BA04200D0034B180098
:1013800010BDC046FC2900205CD9020054D90200DF
:10139000080010B5FFF7A2FF0400FFF7B5FF012317
:1013A000A340064A064811880B4200D1054811881F
:1013B000994311800022044B1A7010BDBC2D0020EF
:1013C0005CD9020054D90200D02D0020F8B5FFF7F7
:1013D0009BFF144C14482378002B22D02078002146
:1013E000C0B201F055F901260022104F2378934234
:1013F00015D9010008310D0011005308FB5C314084
:1014000089000B410F210B4009499B005B580621C5
:10141000DB000B43290095004B510132E6E7002326
:101420002370F8BDD02D0020549F0200C82D00204D
:10143000249D020070B543885A1E0A2A1FD8012530
:101440002A009A400F490888024392B20E480A8047
:1014500002780F2A13D802780C4CEA40A25C067876
:101460000F21D2B22E420BD00A401B011343027847
:10147000DBB25208A35403780133DBB2037070BDB2
:101480008A43F3E7BC2D0020D02D0020C82D00207A
:101490000022104B10491A6003001233FF33411829
:1014A0005A701A7004338B42FAD1010003000022F3
:1014B00009310833FF311A709A705A70DA700433A8
:1014C0008B42F8D1C3237F229B00C254034B044AB2
:1014D0001A6070473C010020110300000400002046
:1014E0008C0A0300F0B500267E2432003100930000
:1014F000C318FF335F7C7F2F4CD09B7CF618F6B26D
:10150000531CDBB2EF2E2AD9C1267D25B6008619E1
:101510003700AC469C4516DA9B00C318FF3359745C
:101520009974D97419757D230232D2B2934211DABB
:101530009300C318FF335C749974D974197500262D
:101540000132D2B2D3E73D68043FBD6001256D4250
:10155000AC44DFE73568013B7560043EE6E77D2F6C
:10156000EED80D4DEF5D01252F42E9D0C1227D2639
:10157000920082189E4208DA9A008218FF32547450
:101580009174D17411751A00D9E71568013E556040
:10159000043AEFE7F0BDC0466F0B030070B50021C1
:1015A00040250D4C8B00C318FF335A7C7F2A12D084
:1015B000A25C0131C9B22A42F4D05A7D7F2AF1D00F
:1015C000A25C7F2AEED917269E57DA7D002EE9DD30
:1015D0000132DA74E6E770BD1E0B03000300F7B5B5
:1015E00000214C4A1333FF338218197004339A4296
:1015F000FBD1FC239C460025844463462A001B69DA
:101600000093009B9D4207D37F23443292001354E2
:101610000120FEBD0D00F4E76346DF687C5D602CB1
:1016200001D9203CE4B2691C009EC9B200238E425D
:1016300004D07B5C602B01D9203BDBB20026232C3D
:1016400021D1303B092B02D9334B344A0CE002350F
:10165000E9B2009C8C420AD8FF2BF5D8437053B2F4
:10166000002BD7DA2C4B2E4A00201A60D1E77C5C85
:101670002500303D092DEFD80A256B430131303B61
:10168000E318C9B2E5E7F7B20197264FF75DA74225
:1016900011D1254FF75D2A2F0DD0BB420BD19300FE
:1016A0000199C318FF335974417801320235197515
:1016B000D2B2E9B2D3E70136512EE4D100231A4D5C
:1016C0005E5DDFB22A2E0CD1164E9E5DA64208D179
:1016D0009300C318FF335F74447801321C75D2B293
:1016E000BDE70133512BEBD1104D493B2E7AA64279
:1016F00008D0013D002B02D1074B0D4AB4E7013B56
:10170000DBB2F3E7002BF7D014004334A400041934
:10171000A370A4E71203000004000020A10A030044
:101720008F0A03005D0C0300AE0C0300FF0C0300E6
:10173000AF0A030010B51130084A0949FF30037899
:101740007F2B00D110BD02240457002C03DCCB5C9E
:1017500043700430F3E7D35CFAE7C0460D0C030096
:10176000BD0B0300F0B50023070085B09E00BE1935
:101770003100FF314A7C9C467F2A01D105B0F0BD83
:101780004F4B02209C5C63460133DBB20442EDD038
:10179000012560462C4242D15419E0B200904948DC
:1017A0007C35801840780190C87C097D02900391B7
:1017B000C1218900791808009D4226DA9B00009813
:1017C000FB18FF3358740198941C98740298E4B283
:1017D000D874039818753B48634682183000FF3070
:1017E0009578027D023300927D22C67CDBB29A425C
:1017F00010DA9B00FB18FF335C749D74DE74009A52
:101800001A7563460333DBB2B0E70468013D4460F8
:101810000438D1E70868013A48600439E7E7013045
:10182000C0B2010044318900C95D0029F7D07F2989
:1018300008D008242248405C204297D1243901294D
:1018400000D893E73000511CC9B200911D49FF3008
:10185000891849787D250191C17C0291017D039110
:10186000C121890079180C009D421FDA9B00009C61
:10187000FB18FF335C74019C124D9C74029CDC7459
:10188000039C1C75941CAA1863469678027D02334B
:1018900000927D22C57CDBB2E4B29A420BDA9B0057
:1018A000FB18FF335C749E74DD74A8E72668013D65
:1018B0006660043CD8E70868013A48600439ECE700
:1018C0001E0B0300BD0B0300F7B500229300C318E5
:1018D000FF335C7C002C03D10132D1B20A00F5E762
:1018E0007F2C00D125E1102692490D5D511CC9B213
:1018F000354215D14E2C3BD118220D24DD7C5C7471
:101900001E7DC1239B00C31870348C4236DA8B00D5
:10191000C318FF335A740022DD749A741E75DDE714
:10192000DC7CAD06ED0FA4462C00C1257D261434C9
:10193000AD001F7D019445198E4214DA8D00019C83
:101940004519FF356C740024AC7464462F75EC7433
:101950005C7C352C00D0AEE05A7B774CA25C520701
:10196000BCD5102278E02C68013E6C60043DE3E7B2
:101970004F2C08D11B22C0E71C22BEE71F68013C88
:101980005F60043BC1E7502CF6D06DB2002D2BDA1E
:10199000DD7C002D28D00D004435AD002D5C002DE0
:1019A00022D1961CF5B20195AD004519FF356F7C2B
:1019B0007F2F19D05F4EF75D7F2F15D9EF7C002F59
:1019C00012D0C1237D229B00C318019C944206DDE6
:1019D0001F236B740023AB74EB742B757EE71C68BC
:1019E000013A5C60043BF0E7172C09D0182C35D184
:1019F0005A7B504CA25C7F2A00D86FE713222BE061
:101A00005C7B013AD2B2452C1CD11B3C5C731500A7
:101A10004335AD00474C2D5C655D7F2D00D85DE7FB
:101A20000132D2B292008218FF32557C002D76D05E
:101A3000645D7F2C00D851E7D27C002A00D04DE7AE
:101A40001E3209E0392C01D10D3CDFE7394A125D25
:101A50007F2A00D842E712225A743FE7202C05D192
:101A60005A7B3C2A00D039E7163AF5E7482C15D1C5
:101A70005C7D7F2C02D14B245C7403E02D4D2C5DEA
:101A8000A406F8D55C7C2B4D2D5DED0700D45FE7F7
:101A90005D7B202D3CD10C3C5C741FE73C2CF1D1CC
:101AA0005A7D7F2A00D119E7224CA25C920600D50C
:101AB00014E73F22D0E72A2C16D1DA7C1C7DC12303
:101AC0007D259B00C3188D4209DA2B258B00C31896
:101AD000FF335D740025DA749D741C75FEE61E6884
:101AE000013D5E60043BEEE72C2C11D1DA7C1C7DBD
:101AF000C1237D259B00C3188D4204DA8B00C318D7
:101B00002D25FF33E5E71E68013D5E60043BF3E7EA
:101B1000452C00D17BE7392C00D0DFE677E7527DFA
:101B20007F2A00D1DAE6A25C7F2A00D8D6E61E2200
:101B300092E7F7BD1E0B03006F0B0300F0B5002406
:101B400085B00190E3B2019A44339B009B5CE5B2FF
:101B50007F2B32D05C4EF35CDB072CD56A1ED2B2F1
:101B6000019B443292009A182B00584F013BDBB284
:101B7000002B23D011787F2903D0795C043A7F2988
:101B8000F4D901999A008A18FF32517C7F290ED02E
:101B90002027705C384204D04C48415C042001424C
:101BA00005D0917C48088446013161449174013329
:101BB000DBB2AB42E5D10134C4E70023022712E0D7
:101BC000730708D4F3070DD56246FF32937CD9081A
:101BD0005B1A937406E0039B039A9B7B990801337D
:101BE000CB189373029B01999A008A181100FF3158
:101BF00094464A7C7F2A64D0344C5E1CF0B2A656D0
:101C0000A55C0290002E1EDA820001988218FF3235
:101C1000557C0392605D020006007F2D00D14126B5
:101C200040200242CCD1123D012DDBD80233DBB281
:101C3000019A44339B009B5CE35C0342D2D08B7CD3
:101C4000013B8B74CEE708201F4EB25C02420FD0DE
:101C5000029B019A9B00D318FF335A7C7F2AC1D084
:101C6000A25C3A42BED006229A74013A9A73B9E74E
:101C70003D421CD00133DBB21A000199443292007C
:101C8000525C002AF6D07F2AACD010498A5C3A42D6
:101C9000A8D0019A9B00D318FF339A7C52080132D6
:101CA0009A746246FF32937C5B08013391E71023FC
:101CB0001A4297D04B7BE35C3B4293D08B7C023B38
:101CC000BFE705B0F0BDC0466F0B03001E0B03005D
:101CD00070B50400FFF7DCFB2000FFF77FFC23005A
:101CE0000022FC33DA601A61904226D02500224E91
:101CF00011353368FF35934203D029001F4800F0A7
:101D0000EDFF2000FFF7E0FD2000FFF747FC20007B
:101D1000FFF710FD2000FFF711FF2000FFF722FD65
:101D2000C4222B009200A1181A78502A06D97F2AC3
:101D300007D00020124B134A1A6070BD04338B4247
:101D4000F2D13368002B02D00F481EF0E1FF2000D3
:101D5000FFF7C8FB3368002B03D029000B4800F0C5
:101D6000BDFF200020F0B2FA054B094918681FF0AA
:101D700069F943425841E0E7302B0020C60A0300CE
:101D800004000020D50A0300FB0A03000B0B03002C
:101D90008C0A0300F8B5070008680C0024F036FE32
:101DA0000500606806F0ECFA0600022F0AD9A06868
:101DB00006F0A8F902003100280020F0B3FA25F05F
:101DC00061FEF8BD004AF6E740420F0080235B0544
:101DD0001869034B1B7843438020C002C01A704728
:101DE000D22D002080235B051869034B1B784343E9
:101DF0008020C002C01A7047D32D002070B5084D56
:101E0000C4012B680021181926F049F92868054BF0
:101E100000197F3000781B788342F0D270BDC04635
:101E200040010020D12D002010B5C3790400002B03
:101E300008D0064A037981791068DB01C0180130A7
:101E400026F02DF90023237210BDC046400100206A
:101E500010B5124A030011684279D2018A181000A5
:101E60007F300478FF2C08D11879C001091849780F
:101E7000FF290FD0987988420CD0997952180131F6
:101E8000C9B250787E2901D0997110BD00225C71D1
:101E90009A71FAE701204042F7E7C046400100206E
:101EA00070B5F8248025A40223786D054D2B4CD104
:101EB0002B698020E41A2B69C002E41A2969001BEF
:101EC00018F01EF82B4B2C4918702B69E218521889
:101ED0005D421540294B2A4A9B1A2A4A9B188022A8
:101EE000520511699D4234D38020C002401B18F076
:101EF00007F8254B641B1870E411244BE4B21C70E6
:101F0000A12001230025224A22491360C0004D6010
:101F10004B68002BFCD01358DBB2A342F7D21E490A
:101F200001330B7001235360FFF750FF0378050066
:101F30001A4CFD2B0FD180235B051869184BC00983
:101F4000C018C0012818206070BD80242B69E402ED
:101F5000AFE76D18C5E7FFF745FF0378803DFD2B20
:101F600001D12560F0E7FFF73DFFFD2126F097F84E
:101F7000F7E7C046D32D0020FF87FFFF14010020A4
:101F80000000002060940300D22D0020D12D0020FD
:101F900000D00040FCD00040D42D002040010020A3
:101FA000FFFFFF01F7B5254B254E1A78254B14008E
:101FB0001B7831680133E001405CFF2828D00134F0
:101FC000E4B29C4200D101249442F4D18023002544
:101FD0005B051B69DB0901933368E701DA19DB5DF7
:101FE00000925A4253410098ED1826F06EF80028EE
:101FF00010D0002305E00099DA018A5C002A09D19B
:102000000133019A9342F6D13068C01926F053F893
:102010002000FEBD0B4B01341B78E4B201339C421F
:1020200000D10124054B1B78A342D5D1072D02D93D
:1020300020F0E2F9B7E7FF24EAE7C046D42D0020FC
:1020400040010020D12D0020F7B506000D0001242D
:102050000E4B1B7801930E4B1F68019BA34202D2CB
:10206000FF242000FEBDE301F918FB5CFE2B09D123
:102070008B78AB4206D12A00300003311EF07AFC87
:102080000028EED00134E4B2E7E7C046D12D0020AD
:102090004001002010B5054A03791068DB01C01823
:1020A0008178002203300DF03DF910BD4001002081
:1020B000F0B585B006000D0002920393782949D847
:1020C000FFF7C2FF029B0400002B3DD0FF2801D088
:1020D000FFF794FEFFF766FF0400FF2803D11E49B7
:1020E0001E4820F0E5F81E4FC0013B68FE2101901C
:1020F000181825F0D4FF3B68019AE9B2981802300D
:1021000025F0CDFF3868019B2A00C018310003304C
:1021100013F09EFD0C2025F00DFD03990300114ADC
:10212000002900D0104A1A600D4A1C7110685C71B9
:10213000E4010419A27802329A71029ADA7101223A
:102140001A72039A5A7202E0029BFF28E2D1180029
:1021500005B0F0BD0023FAE7080D03001CEE0200F5
:102160004001002018B602006CB5020007B501A9B5
:102170000DF02EFD0199FFF767FFFF2803D10449F9
:10218000044820F095F8FFF739FE03480EBDC0461D
:102190001E0D03001CEE0200E0F10200F7B50192F3
:1021A000027A04000091002A02D12448FEF760FE62
:1021B000C579002D06D1224A17680279D201D25D75
:1021C000002A05D1092201251A606D422800FEBDB2
:1021D00061797E22C901791808007F30A3790078DF
:1021E000D21AFF2809D12079C00138184078FF2879
:1021F00019D0C01A824200D902000198461B9642AB
:1022000000D91600002EE1D0009A01335019C918E8
:1022100032001EF0D7FBA3799B19DBB27E2B04D0D2
:10222000A371AD19D4E70022E7E70023A371637916
:10223000DB01FB187F331B786371F2E72D0D030080
:1022400040010020F0B585B00393037A04000291A9
:102250000192002B02D13048FEF70AFEC379002B11
:1022600008D02E4A03791268DB019B5C019A009228
:10227000002B25D10923039A13600A3B019301988F
:1022800005B0F0BD7E22A379D71A009A974200D9F3
:1022900017006079214E0133C001C01833683A003D
:1022A0001818029913F0D4FCA379DB19DBB27E2B4A
:1022B0000AD0A371029BDB190293009BDB1B0093E6
:1022C000009B002BDED1DAE70023A371FFF76AFE43
:1022D0000500FF2809D12079FFF790FD0023039A1C
:1022E00023721C3313601D3BC8E760793368C0015B
:1022F000181829007F3025F0D2FE3368ED015819F7
:10230000617925F0CCFE62793368D2019B187F3366
:102310001B786371CEE7C0462D0D030040010020FD
:10232000002170B5080021F03CFA012405000C4B97
:102330001B78A34201D2280070BD0A4AE30112684B
:10234000D018D35CFE2B08D18178002203300CF02A
:10235000E9FF0100280006F099FF0134E4B2E6E746
:10236000D12D00204001002073B501A90DF030FCF3
:102370000199FFF769FEFF2803D10E490E481FF0AF
:1023800097FF00257E260D4B1C68C301E318597882
:102390009B780233DBB2C201A2187F321078FF288B
:1023A00004D1C81A401925F06DFB76BDF31AED185B
:1023B0000023F0E71E0D03001CEE02004001002088
:1023C0001FB5034A034B22F07FFE05B000BDC04697
:1023D000511E0000291E000070B5040008000D0009
:1023E0001EF074FE002301001A002800FFF760FEB3
:1023F000002802D10230FEF723FF034B6360034B3A
:102400002060A36070BDC046511E0000291E000060
:1024100010B50400431C02D0024811F02DFF024BFE
:102420001C6010BDA82E0020782E0020014B024A0F
:102430009A647047802E0020A82E0020F0B5124B21
:1024400087B003AD40C9013800930195032311F013
:102450009BFF68680D4F1E24B84202D024F0D6FAC4
:1024600044B2A8680023B84202D024F0CFFA43B2A5
:10247000706803994371047116F09CFC706817F042
:1024800013F8380007B0F0BDE09E0200E0F1020052
:1024900030B5124B8BB003AC20C9013800930194C6
:1024A000032311F071FF616806A822F059FA039B1B
:1024B000089A5900237A00936868079B15F030F852
:1024C000021E05D00649074811F076FE02F052FEC2
:1024D00006A905480CF0F0FE0BB030BDF89E0200D6
:1024E0004A0D03001CEE020090D3020030B5114BE0
:1024F00089B002AC20C9013800930194032311F084
:1025000043FF0122606805A905F0BAFF029B059A06
:102510005900237A00936868069B15F011F8021E93
:1025200005D00549054811F047FE02F023FE044896
:1025300009B030BD109F02005C0D03001CEE0200CC
:10254000E0F102000021F8B54768080021F029F900
:1025500008250600B1223B68D2009D508022002051
:102560009200190098500122FC319A6088605A61EB
:10257000104A8868002803D1002A19D0013AF8E7E8
:102580000024A24204D00C4A9C5863425C41E4B24D
:10259000380016F089FF002C05D001216B003000B7
:1025A000194306F073FE0135782DD3D13000F8BD04
:1025B0001400EDE710270000C4040000044B8860FD
:1025C0000B60044B08004B600023CB607047C04693
:1025D0000CA20200B924020070B50E0011490400DB
:1025E000002522F015FC7368AB420AD8012B03D1F9
:1025F00020000D4922F00CFC20000C4922F008FCC0
:1026000070BD002D03D02000094922F001FC3300E9
:10261000A900083301222000595805F0A7FC013514
:10262000E1E7C0467D120300720D03001D18030090
:102630006F0D030070B503000C0001281ED00228A6
:1026400008D00020834204D14B680E48002B00D1F3
:102650000D4870BD01230D4D62685E1C013B9A421E
:1026600003D801206D002843F3E7B300E1580220AE
:10267000FDF76CFE401033002D18EDE74868400070
:102680001843E6E75CD9020054D90200549F0200C7
:1026900070B505000E000C48002D0FD0AC1CA40036
:1026A000200025F047FA094B45600360002E05D055
:1026B00002000023083C0832A34200D170BDF1584B
:1026C000D1500433F8E7C046549F02005C9F0200DB
:1026D000F0B507000E00140085B0142831D028D8BA
:1026E00007282ED0122802D00025052826D1200048
:1026F00005F024FC2E490CF055FC051E1ED0736815
:10270000626800219818FFF7C3FF07003100736863
:1027100008379A000500083138001EF053F92100EF
:1027200070686368800038189A0008311EF04AF912
:1027300004E00300193B0025042B1DD9280005B037
:10274000F0BD200003A905F01BFD051EF6D003987F
:10275000184D0028F2DD736800215843FFF798FFF9
:1027600005002B003000083300930421039B72689E
:10277000083025F053FBE1E7100005F0DFFB0E4BBE
:10278000426A9A4205D02000094923F0B1FC041E98
:102790000CD0230031006268380000920833726860
:1027A000083113F011F8054D0028C7D1044DC5E7D5
:1027B0005C9F0200549F0200BD2500005CD902000E
:1027C00054D9020030B5040085B0042A2FD1032368
:1027D0000D0040681D4019421FD1164B0A689A42ED
:1027E0001BD101AA12F080FF002802D11248FEF787
:1027F00033FD019B02982900C01AFFF749FF05002D
:1028000021006B6808319A00019B08309C0009196F
:102810001EF0D8F8280005B030BD0A0000230100E2
:10282000206805F049FD023080000559F2E70025D7
:10283000F0E7C046D0AA0200740D0300F0B50C000A
:102840001100002285B01E0020000123009211F02B
:102850006BFD184D002C1ED03568AB0703D1164B0D
:102860002A689A4217D0102025F064F9002104004C
:102870003068FDF7D5FE0025042703900398FDF787
:1028800031FF061E0AD128002100FFF701FF0500D5
:10289000200025F07EF9280005B0F0BDAF4205D834
:1028A0002000F90025F064F904007F00AB001E5100
:1028B0000135E3E7549F02005C9F0200F0B50E0073
:1028C0001100002285B0B41C0700039330000D4BAB
:1028D0000092A40011F028FD200025F02BF90760DC
:1028E000070005004660039E083C08373419A642DD
:1028F00002D1280005B0F0BD002101CEFDF790FE09
:1029000001C7F4E7FFFF0000F7B545681600A868A7
:102910001F00019123F0F3FD0400A86823F0F5FDEA
:1029200023F0EDFD0323584307340019800025F000
:1029300001F9084B040003606B6832004360002318
:102940008560C36001993B0008300EF047F8200015
:10295000FEBDC0464CA0020070B5050088680C00A2
:1029600025F093FB230002000249280022F016FB09
:1029700070BDC046A50D030010B5024824F0C9FF84
:1029800002F0F8FBD0EE020010B50400082025F09C
:10299000D1F8024B0360446010BDC04688A002001D
:1029A000F7B5C5680F00040011001E00002D02D10C
:1029B0001D602800FEBD020003691832934205D154
:1029C000174B9F4203D01748FEF718FC1F602000EA
:1029D000154F08307B68019363687B6004F03EFB11
:1029E000019B05007B60012807D002280CD0002342
:1029F000E36023691B683360DBE723691B6833608E
:102A0000002BD6D1E360D4E7A368986823F077FD64
:102A1000002305308000E36024186368EBE7C046BC
:102A2000E0F10200C30D0300802E002013B501ABBE
:102A3000FFF7B6FF01280ED0104C02280DD0019BE5
:102A4000A34219D0002B17D001210D4801AA24F070
:102A50005AFF02F08FFB019816BD019805F06EFA3F
:102A600007490CF09FFA002801D10198F1E701987D
:102A700011F06EFB8442F8D10020EDE7E0F1020096
:102A8000D0EE02000B0010B5022808D14A680549B3
:102A90001868FFF7CBFF002803D1FFF76DFF8A68A6
:102AA000F5E710BDE0F1020010B500220149FFF783
:102AB000BDFF10BDE0F1020013B5114C114A210019
:102AC00001ABFFF76DFF012803D0022805D02000DD
:102AD00016BD0D490D481FF0EBFB019805F02EFACD
:102AE0000B490CF05FFA0028F1D1019805F026FAA5
:102AF00008490CF057FA0028E9D1019802F03AFB96
:102B0000E0F102003CEA0200F90D030094EE02003D
:102B1000C4EB0200D0EE0200054B10B5186825F09A
:102B200080FD044B002800D1034B180010BDC046A7
:102B3000002A00205CD9020054D9020010B5034BD2
:102B4000186825F076FD024810BDC046002A002016
:102B5000E0F1020010B5034B186825F0D8FD24F011
:102B600091FF10BD002A002010B5034B186825F016
:102B7000D5FD24F087FF10BD002A002010B5034BBF
:102B8000186825F0D2FD24F07DFF10BD002A00203A
:102B900010B5034B186825F07DFD24F073FF10BDC0
:102BA000002A002030B593B001F078FF184C2000C7
:102BB00026F074F9174D286813F0DEFF200026F088
:102BC00072F901F05BFF23F065F81FF03CFD040093
:102BD000296803A825F01BFD0F4B20000A93039BD7
:102BE0000B93049B0C93059B0D93069B0E93079BE5
:102BF0000F93089B1093099B0193119325F05BFAA7
:102C0000200020220AA913F023F8044813B030BD95
:102C1000082A0020002A002055BA11C0E0F1020065
:102C2000F7B5114C0500206825F0FBFC002802D107
:102C30002800FFF7B7FF0D4E3378002B0ED10C4D57
:102C40002B78DAB20192002B08D1012720682F706F
:102C500003685B689847019B2B703770206814F0FD
:102C600067F824F00FFFFEBD002A0020D52D0020BC
:102C7000D62D0020F0B58DB01FF0E5FC0E4B02689C
:102C80009A4217D104694168089444698268C3680C
:102C900009948469C0690A9484466C460591069239
:102CA000079308A8E0C8E0C46046206003480068B5
:102CB00025F097FC0DB0F0BD55BA11C0002A0020D8
:102CC00070B505000C200C0024F034FF024B456069
:102CD0000360846070BDC046D0A10200F7B5060055
:102CE000194D0C0028001EF013F8310017481DF094
:102CF00087FF17481EF00CF816481EF009F8FF234E
:102D00009B00E61821787F2901D0A64206D1280031
:102D10001DF0FEFF10481DF0FBFFF7BD6278A378A1
:102D200050290CD80D48475C0D48405C0193009237
:102D30003B0002000B481DF063FF0434E2E70A4841
:102D40001DF05EFFF9E7C046190E0300460E0300B2
:102D50004E0E0300240F0300420F0300AE0C0300CD
:102D60005D0C03006F0E0300920E0300F0B51D0012
:102D70008BB007901B4808920E001DF0C9FF290078
:102D800019481DF03DFF19481DF0C2FF18481DF0FD
:102D9000BFFF0024A54204DC12481DF0B9FF0BB0B0
:102DA000F0BD0898A300005D0799F718BA78095D8F
:102DB00004903868F35C0003400E0390F8789B069B
:102DC0009B0E0993030902933F880007FF04000F3D
:102DD0007F0E0090099B0748120901971DF010FF14
:102DE0000134D7E7190E0300B30E0300E00E030011
:102DF000120F0300440F0300030010B50548002B19
:102E000003D124F086FD02F0B5F9096824F087FDAE
:102E1000F9E7C04648EF020010B50348096805F01D
:102E2000C9F8024810BDC04618C30200E0F1020014
:102E300010B505F0CDF9044917F0BAFE17F06EFA97
:102E40001FF0C5FE014810BD00007A44E0F1020009
:102E500010B505F057F9002801DD1FF0B8FE014854
:102E600010BDC046E0F1020010B50400080005F0F6
:102E700049F96410241803486400044001202043E9
:102E800010BDC046FEFFFF7F10B505F03BF90028DE
:102E900001DD1FF098FE014810BDC046E0F10200C0
:102EA00010B51FF0ACFE034B40001840012318433F
:102EB00010BDC046FEFFFF7F10B51FF09CFE034B08
:102EC000400018400123184310BDC046FEFFFF7F9D
:102ED000F7B50191114904001600002521F098FF73
:102EE0007368AB4204D820000D4921F091FFF7BD73
:102EF000002D03D020000B4921F08AFF019BAF0079
:102F0000DA590949200022F049F833000833012238
:102F10002000D95905F02AF80135E1E77D120300B8
:102F20001D1803006F0D03006C0F0300004870476D
:102F30003CA402000300080010B5044C04330ECB7F
:102F4000046041608260C36010BDC046D0A402002E
:102F5000F0B50E00002785B011001D0001220323EB
:102F600003900097300011F0DFF9102024F0E2FD0B
:102F7000039B0400036001234760C36028689E42EE
:102F800005D105F0BFF8A060200005B0F0BD05F048
:102F9000B9F86060686805F0B5F8A060032EF3D159
:102FA000A86805F0AFF8E0600028EDD10148FDF712
:102FB0005FFFC046EB0F030070B50D004A688B68D9
:102FC0000849040021F0EAFFEA68012A04D1200040
:102FD000054921F01DFF70BD2000044921F0DEFFEE
:102FE000F9E7C046F50F03001D18030002100300A7
:102FF00030B504000D00002087B0042A30D1A3684A
:103000006268E1689B1A5B18581C002900DD581E95
:1030100017F000F8C343DB171840AB0722D1184B59
:103020002A689A421ED1290003AA12F05DFB1020E3
:1030300024F080FD134BE2680360039B61685343F7
:103040005B184360049B6168019353435B180599C7
:1030500083604A43C260002902DAE2689B1A8360F7
:1030600007B030BD002301002A00206805F024F9D4
:10307000E36858436368C018012340001843EFE732
:10308000D0AA020094A40200136810B51400002B0B
:1030900005D1A42904D1406824F0F4FC206010BDBF
:1030A000B9235B00994201D18068F5E7024B994250
:1030B000F5D1C068F0E7C046BF0200000A0093687F
:1030C0005268C9689B1A5B1810B50400581C002987
:1030D00000DD581E16F09EFF0300002C08D00020D3
:1030E000012C09D1D843C01718404000204303E009
:1030F0000248002B00DC024810BDC0465CD902002B
:1031000054D9020010B5010083880120A022984004
:10311000044BD205D050CA88083125F04AF802483D
:1031200010BDC0460C050000E0F102007FB50E00A6
:103130000400C188150000233200006805F0BCF8C7
:1031400003267043002D14D02418042D14D101231C
:10315000627A300052001A430192227A01A99A4001
:103160001A430292A27A9A4013430393FFF790FA0C
:103170000500280004B070BD3100280001AA05F048
:1031800087F8019B186804F0BDFF019B0600586892
:1031900004F0B8FF019B0500986804F0B3FFFF2E10
:1031A00003D8FF2D01D8FF2802D90448FDF760FE9F
:1031B00025726672024DA072DBE7C046081003005C
:1031C000E0F10200F7B51C00002300930233080071
:1031D00011001A0011F0A8F8206823F017FC47B27C
:1031E000606804F08FFF041E02DC1048FDF740FE0B
:1031F000032630006043083024F09CFC0C4BA2B244
:103200000500724387800360C480002108301DF0F0
:103210008BFC3B00A022C133FF33D2059B009E50A4
:103220000123BB40034928005350FEBD1710030083
:1032300064A502000C050000032210B50400C38839
:1032400000215A4308301DF06FFC2000FFF75AFFA1
:10325000004810BDE0F10200F0B591B007001FF08A
:10326000C7FA039024F066FC039A0100049038002A
:103270001FF0B1FA049B0AA80A9323F030F90AA8B8
:1032800023F02DF90A9B0BA85A1C0A921A7809926E
:103290009A1C0A92DA1C5C780A929E7804330A938C
:1032A0000B9323F01CF90A9B18180A900A9B5A1CCE
:1032B0000A921B78FF2BF9D138001FF0A8FA0500FD
:1032C00038001FF0A4FA039A0B9B94461D700B9BC9
:1032D0002D0A5D700B9B98700B9B000AD870049BA5
:1032E0000A9D63440593059BAB4232D838001FF01A
:1032F0007FFA079038001FF07BFA079BA41908900B
:1033000018180019800024F015FC06260500A400FA
:10331000031905900693069B9D4229D10026059B23
:103320001B190693079B9E4229D10025069BB400DA
:103330001C19089B9D4256D11FF0E7F80400099B19
:10334000039A00930499059B1FF0EBF8200011B03D
:10335000F0BD28000CA90DF0AFFC012805D1380004
:103360001FF055FA6870000AA8700C9BED18BAE7B8
:1033700038001FF04CFAC000304301C5CBE7386875
:103380007B689847C4B21B48652C1ED038001FF0DC
:103390002FFA050001000CA821F0E2FA2A003800FB
:1033A0000E991FF018FA732C0BD01348622C09D019
:1033B0000E980D99692C0DD100230A2202F00CFA07
:1033C00003E00E480CA90BF077FF069AB300D0502B
:1033D0000136A7E7633C624262410023D2B2009308
:1033E00002F076FAF1E73800FFF736FFAB00E05065
:1033F00001359EE7A8D0020090D3020028F4020015
:1034000037B501AD0422290004001FF0E4F92B7840
:103410004D2B08D16B78022B05D1AB78022B02D152
:10342000EB781F2B02D90648FDF722FD2000FFF79D
:1034300013FF0500A3682068984728003EBDC046DA
:103440003010030010B5402834D02DD80223984303
:103450003C2829D1532922D8412925D942390800AD
:10346000112921D816F038FD59202020202056158A
:10347000202015202015152320150F2814D816F00C
:103480002BFD4C13161308134908131308131313B9
:10349000131601230420002A00D0136010BD6239E6
:1034A000CBB208000F2BE8D91D48FDF7E1FC012342
:1034B0000820F0E7532918D8412904D8012318001F
:1034C0009942E8D0F0E7423908001129ECD816F00B
:1034D000F9FC24EBEBEBEBEB1F09EBEB09EBEB0956
:1034E000091DEB0904231800D5E76239CBB20800A7
:1034F0000F2BD9D80F28D7D816F0E4FC0FD608D652
:10350000F4D60AF4D6D6F4D6D6D6D6080823EAE7F7
:103510000223E8E701230220BDE70123E3E7C046D9
:103520004710030010B5512812D8412803D80128AC
:1035300023D000231DE042380F28FAD816F0C2FC31
:103540001DF9F9F9F9F92225F9F925F9F94D503163
:103550006238C3B20F2BECD80F28EAD816F0B2FCB1
:1035600008E932E928E90F40E9E940E9E9E9E91A1F
:103570008B5601205B0018430BE08B5CF9E752008F
:10358000535EF6E75200535AF3E79200505824F086
:1035900094FA10BDD2008A181068516824F063FABA
:1035A000F7E7D2008A181068516824F077FAF0E73C
:1035B00003239200505898430300022018430B4BFA
:1035C000C018E6E7D2008A181068516819F0A6FC06
:1035D000032302009A431300EFE792005058D8E704
:1035E0009200505824F04EFAD3E7C0460000808085
:1035F000F7B51700156801AA04000E00FFF722FFB7
:10360000402C05D1019B043C5A1EAA185D4215406E
:103610005A213E3C62426241B14289412B183B60D3
:10362000D2B22B0049421FF013F904000D004F2EB7
:1036300008D0532E07D11DF049FD002201002000C3
:103640000BF070FEFEBD0323662E05D0642E09D15B
:1036500019F064FC0323040002209C43134B204315
:10366000C018EFE75A2E13D980220023D205121971
:103670006B4120001100002B06D180231B069942CC
:1036800002D224F0FFF9DDE7290024F0ECF9D9E7B4
:10369000002906D18023DB05984202D224F00DFADE
:1036A000D0E7290024F0FAF9CCE7C046000080807A
:1036B000F0B589B0160005AA1F001D68019002919F
:1036C000FFF7C0FE019B0400402B06D1059B5A1E4C
:1036D000AA185D423C23154001932B193B60019BC6
:1036E0003E3B1F0003937B425F41029BFFB2642B72
:1036F00012D0662B0BD04F2B29D12000042C00D9DF
:10370000042033002A0039001FF0CEF82BE03000EF
:1037100004F05EFD0600F0E7300004F059FD19F0FA
:10372000B5FB08AA06900791BB00D318083B2A00F6
:103730001B68390004201FF0B7F8039B04355A1E9C
:10374000934108AA9B00D318083B1E68D5E7B3072E
:103750000BD1114B32689A4207D12B00220039005D
:10376000300024F05CF909B0F0BD300004F0CAFC70
:103770000600042CC1D9029B00215A2B02D9884291
:1037800000DAFF31220028001DF0CEF9019B3E2B0C
:10379000B3D1231FED18B0E758AA0200F7B5060011
:1037A0000F0014001D0064280DD0662804D04F2897
:1037B00013D19400E35105E0940018000F1904F0B0
:1037C00007FD3860F7BD180004F002FD19F05EFB3C
:1037D000E4003F1938607960F4E703232A001A40B7
:1037E00001921D4211D10E4B2A689A420DD101005F
:1037F000019A4020FFF726FE23004343020001996F
:103800002800FB1824F00BF9DCE7280004F07AFC10
:1038100022000300390030001FF05BF8D2E7C046F9
:1038200058AA020001220020074B08495A6008608C
:10383000A821DA60064AC9005A5006495A50043194
:103840005A5005495A50704700A000400CAC004047
:10385000FCFF0000440500004C050000034B044839
:103860001B78002B00D103487047C046D82D00209C
:103870005CD9020054D90200F7B5A827A925324B1C
:10388000042019689C46314B314E1A68FF008A1893
:10389000891819602F4B00911B7812110193019C1C
:1038A0002D4B0911ED00002C47D0002A3ADA821A7C
:1038B000D8515A5181229200002937DA2748511AEB
:1038C0001A5099510122264CDA602378002B23D01C
:1038D0003F212448244B02688C331B68013211407D
:1038E0005D5C019B002B01D0803D6D001C236B4370
:1038F0000160009908335B1A61469B100B601F231F
:10390000110019401A4207D1184B1A78002A03D027
:103910001748197001F0DAF9012322780420534086
:103920002370FEBD04325851DA51C3E79A51812207
:1039300092008918094A9950C4E70432D8519A5123
:10394000812292005A51F4E75401002044010020E2
:1039500044050000D800002000A000404C050000F5
:10396000D72D002048010020802E0020D900002003
:10397000B32902001FB501220400080001A904F0C8
:103980007FFD029A202A00D92022002301980434C6
:10399000934203D0C15CE1540133F9E7014804B01C
:1039A00010BDC046E0F1020070B50400080015002B
:1039B00004F0A8FB1F2802D90C48FDF759FA002D86
:1039C00002D10B48FDF71AFC2418042D04D1012064
:1039D00023795B00184370BD280004F093FBFF2897
:1039E00001D90448E9E720710348F4E754100300C3
:1039F0006810030047550300E0F102000123A022F4
:103A0000834010B5134CD20513510300C133124C3F
:103A1000FF339B009C50114B8900C918A223DB0087
:103A2000CA580F4C00022240F824CA50CA586401F8
:103A300020401043C022920210430322C850CC58A9
:103A4000084822432043C850C046C046C046CA501A
:103A500010BDC0460C0500000303000000600040DC
:103A6000FFE0ECFF031F0000A0221E21114BD2003B
:103A700070B59C58104D8C439C50A324E4001D51FC
:103A80000E4C0F4D0F4E5C5104355E510E4D8000B3
:103A90005C51A5240D4DE4001D51084C0C4D00193E
:103AA0000C4C185104341D510B4C185198580143BB
:103AB000995070BD00F0014040A1004000600040FE
:103AC0001C05000044A100402405000048A100405E
:103AD0004CA100402C0500003405000010B5040086
:103AE0000A4911F033FA0A4BA0211C6001236079C6
:103AF000084A8340C9058B500021FFF77FFF002053
:103B0000FFF7B2FF0022044B1A7010BD58F20200FA
:103B10004C0100200C050000D800002070B50C00FE
:103B20000500134E2000310011F010FA310028007A
:103B300011F00CFA0F4BA0221D600F4BD2051C6038
:103B400068790125290081402E000C4BD150617904
:103B50008E400021D650FFF751FF29006079FFF712
:103B60004DFF2800FFF780FF054B1D7070BDC0465C
:103B700058F202004C010020500100200C0500000A
:103B8000D8000020F8B50025FFF74CFE214B280097
:103B900090331D6001F068F8A0221E201E4B1F49C3
:103BA0001D701F4BD2001D601E4B1F4C1D608B589B
:103BB0001E4F83438B50A223DB00E2581C4E3A4039
:103BC000E250E2581B493243E2500122E5501A4BC1
:103BD000186843799A401300A022D205535011F07F
:103BE0009FF9164B1B78AB4213D0154B1149E25885
:103BF0001740E750E25816430122E650E550114BBA
:103C0000186843799A401300A022D205535011F04E
:103C100087F9F8BD802E0020D82D002000F001404B
:103C2000440100205401002000600040FFE0ECFF50
:103C3000001F03000C0500004C010020D8000020EC
:103C40001405000050010020F0B53E4E0500330081
:103C500090331B688DB0002B03D1FFF793FF0DB09D
:103C6000F0BD002801D002F071F9684601F05CFA5D
:103C7000002822D1330090331868FCF70BFD0400B4
:103C800001F070FA002D01D002F06AF92E4B2022CB
:103C90001D6833006D118C3301351B686D011540B3
:103CA0005D19002C2DD190362100280034601CF0C5
:103CB0003BFF0122254B1A70D1E7002D01D002F005
:103CC0004FF9019B224918680BF06CF9002405009C
:103CD000A042DBD1019F380004F030F91D4B834234
:103CE0000BD129000120FEF7D3FC2A000400F86064
:103CF0001F2119480BF016FBA060019B0024B36440
:103D0000C4E7200004F01AF9144B834209D03300B1
:103D100000229033124913481A6023F007FEB06462
:103D20009DE763682B60A3686B60E368AB60236901
:103D3000EB6063692B61A3696B61E369AB61236A23
:103D4000EB61B6E7802E002048010020D90000205A
:103D5000D0EE020068ED02008D10030048A60200BC
:103D6000AD10030084EF020010B5FFF70BFF014810
:103D700010BDC046E0F10200F0B589B00493754B68
:103D80000E001B7815000390002B01D0FFF7FAFE00
:103D9000714C8C342368002B06D16F4A402090323E
:103DA000136023F0C7FE206080226C4BD200DA67DC
:103DB00001226B4C6B4BE250FFF734FD00236A4A43
:103DC000F021A3500432A3500832A350C2220903A9
:103DD0009200A150654F093AFF3AA3500594BE42A4
:103DE00000D0A6E0B54200D0A0E0614D07AC2800AD
:103DF00011F0A0F8002805D0012328005D492370A8
:103E000011F0A4F85C4D280011F094F8002805D0BA
:103E1000012328005749637011F098F8574D280086
:103E200011F088F8002805D0012328005149A3701B
:103E300011F08CF80023524D5A1C029207AA9B5C89
:103E4000002B3AD1029A01230435022AF4D14848C2
:103E50000EF038FBFFF742FE00210398FCF7E0FB71
:103E6000002501243F223C4B802190331860454BB4
:103E70001D70454B1C70454B1A60374B12198C3323
:103E800018681CF051FE2800FFF7DEFE404B314E53
:103E90001C60059B50221C6028003E49347000F0D5
:103EA000AFFE049BAB4252D02B4B3278002A4ED04F
:103EB0009A6C002A4BD120BFF7E7A02203212C687F
:103EC000D2056379029EC133FF339B00995007AB43
:103ED000F35C002B26D02A4BB200D3580193042365
:103EE000009301226379A0219A40A123C905DB0038
:103EF000CA50019B5F1D38001EF03BFD012811D107
:103F00006379A0219840244BC905C85038001EF0A1
:103F100030FD002806D1009B013B0093002BE0D12F
:103F2000019910E0022E8DD00226D0E71B48FDF744
:103F300065F930000EF0C6FA0400BD428AD02800B0
:103F40000EF0C0FA01002000FFF7E8FD84E709B099
:103F5000F0BDC046D82D0020802E002004E100E0F6
:103F600000A00040FC0F000004050000E0F102008A
:103F700040E7020028F2020088E7020098E702000A
:103F800014A60200D72D0020D900002048010020EF
:103F90000CAC0040793800000C050000BF10030095
:103FA00010B5084B86B002AC00930194042310F0C6
:103FB000EBF902982379E268A168FFF7DDFE024879
:103FC00006B010BD20A60200E0F10200014B1878F7
:103FD000C0B27047D82D002010B5242023F0AAFDD0
:103FE0000400044B2022802108C01CF09DFD20000D
:103FF00010BDC04648A60200F8B5070008000D0035
:10400000160003F09BFF304B83425BD1781F0F28D3
:1040100058D815F061FF0808325757575757575768
:10402000575757303055FFF7D7FF04230400EA5C99
:10403000E2540133242BFAD1300003F07FFF224BEE
:1040400083423FD10121052F02D0122F00D0023927
:104050000422FF20B35CA55C803B4B435B19FF2B24
:1040600003D90500DB179D432B00A3540132242AFA
:10407000F0D12000F8BD2C00DEE7FFF7ADFF0423F0
:104080000400EA5CE2540133242BFAD1300004F03E
:104090009FF80F211EF092FC2100FF25221D2431E4
:1040A0001378803B4343DB138033FF2B03D92E006F
:1040B000DB179E433300137001329142F0D1D8E7F1
:1040C0002C00E3E70024D4E748A60200044B8860F4
:1040D0000B60044B08004B600023CB607047C04668
:1040E0000CA202004F2A02000300054A08000A60E1
:1040F0001A7A0A715B688B600023CB607047C046F8
:1041000078A7020010B504000C2023F013FD034B28
:10411000036002234460037210BDC046B4A70200CE
:1041200010B5043020F0A4FD004810BDE0F10200FD
:10413000002803D0012808D00020704707224B68D0
:1041400004489343F9D10448F7E74B68DB085B0068
:104150001843F2E75CD9020054D902000B6870B52D
:1041600006000D00181D4968140007F0DBFF031E50
:1041700002D0406800280FD1022E08D10948022C35
:1041800006D16968084823F0CAFB00F0F3FFA8686D
:10419000012C00D1586070BD022CFCD100225A6065
:1041A000F9E7C046E0F10200B4EC020070B504008B
:1041B0000D000B7A164A9B0086B0995820F028FE15
:1041C0002000144920F024FE134B02AA02932B7AFC
:1041D000012613716B68019304930023059302A8D1
:1041E0001EF03FFC051E05D120000C4920F010FEFA
:1041F00006B070BD002E03D12000094920F008FE52
:1042000001222900200003F0B1FE0026E7E7C046A6
:10421000F0A70200E110030078A70200E4100300F9
:104220006F0D0300F0B513681400012287B00F680A
:104230000D000092D9080223060010F075F8022E36
:1042400014D16868032302001A40184218D101688B
:104250002A4BC968994213D12B68984206D005921F
:10426000686805A91EF0E0FB061E01D100253FE0AD
:1042700001223168381D07F055FF73684360EFE78E
:104280000021FCF7CDF903900398FCF72BFA0028E6
:10429000ECD00021FCF7C4F90500FCF723FA060076
:1042A0002800FCF71FFA02902800FCF71BFA002EEA
:1042B00004D0029B002B01D0002802D01048FCF74C
:1042C000D7FD01223100381D07F02CFF029B43600F
:1042D000DAE7A368EE009E193168002907D00429A7
:1042E00005D00122381D07F01DFF736843600135BA
:1042F0006368AB42EDD8034807B0F0BD71450000DC
:10430000E7100300E0F1020030B5002585B001A9F7
:10431000040001951EF088FBA84203D109490A4810
:104320001DF0C6FF636802A9083B6360036802933F
:1043300043680393042328C00220FEF7A9F905B0BF
:1043400030BDC0460D110300B4EC0200F7B50C00FF
:1043500015001B280CD000221F2807D1081D29009A
:1043600007F0E0FE2B4A002800D12B4A1000FEBDCA
:1043700003222B001340114225D1284922688A428A
:1043800021D1002BF1D1296891421ED100930193D4
:10439000694620001EF048FB01A9070028001EF016
:1043A00043FB0600002F31D00028DED0316838688A
:1043B00003F056FE0028D8D07168786803F050FEEC
:1043C0000028E5D1D1E7002BCFD1154B2A689A42BE
:1043D000CBD16A686368534007229343C5D10193E8
:1043E000200001A91EF020FB061E01D1094ABDE7ED
:1043F00000223168281D07F095FE0028B5D04168DD
:10440000706803F02DFE0028EAD1AEE7014A0028CB
:10441000ABD1ABE75CD9020054D9020038A8020046
:10442000FCA70200F7B50B681C4A04000D0093427C
:1044300003D05A681A4920F0B1FD2000194920F034
:10444000E7FC002301270193280001A91EF0ECFAE4
:10445000061E0CD12000144920F0DAFC2B680F4A0C
:10446000934203D02000114920F0D2FCF7BD002F69
:1044700003D120000E4920F0CBFC0122200031683E
:1044800003F074FD0B49200020F0C2FC0122200043
:10449000716803F06BFD0027D6E7C046FCA7020059
:1044A0002C11030030110300658C03001D1803005C
:1044B0006F0D0300A553030010B504000C2023F07A
:1044C00039FB034B036000234460037210BDC046F8
:1044D000B4A7020010B504000C2023F02BFB034B03
:1044E000036001234460037210BDC046B4A70200FC
:1044F00010B5002204300C0007F014FE002805D18E
:104500002100034823F00BFA00F034FE406810BD90
:10451000B4EC020010B5024B08C020F094FB10BDB3
:10452000FCA70200F8B50C00070000216068FCF74A
:1045300077F80E4E0500022F00D9A668606803F0D8
:10454000FBFE002809D11EF0B6FA04002800FCF793
:10455000C9F8011E03D12000F8BD4010F3E7012285
:10456000201D07F0DFFD4660F0E7C046E0F10200E5
:10457000F0B589B00190002017001E000D001EF05C
:104580009AFA019B019A03600D4B04009A4203D1F1
:1045900004230279134303712B003B430DD033688E
:1045A000AA003900B21805A80394049320F059FB1F
:1045B000681C05AA03A9FFF735FE200009B0F0BD6D
:1045C00038A8020010B50C00002A03D11EF0A6FA8C
:1045D0000A480EE0042A0DD10022043007F0A2FDA3
:1045E000002805D12100064823F099F900F0C2FD0A
:1045F000406810BD1EF088FAEAE7C046E0F102000C
:10460000B4EC0200044B054A98331B6804481A6056
:10461000044A9A807047C046802E0020780004002B
:10462000E0F1020004040000084A10B513009833BA
:104630001B689979002908D0916C0029F9D00021D4
:1046400099711B6958790DF0E5F910BD802E002095
:1046500013B5084C98342368188823F013FA23689C
:104660000090588823F00EFA694601900220FEF768
:104670000FF816BD802E002010B50D4C002803D079
:1046800008680DF01FFF040020000A4910F05EFCCE
:10469000002160790DF0BEF9200010F041FC0022ED
:1046A000054B064898331B681A619A7110BDC046C5
:1046B00040E7020050F20200802E0020E0F10200EC
:1046C0001FB50C4B02AC0093019402230FF05CFE6B
:1046D000029A002A03D0084B98331B685A806268FC
:1046E000002A03D0044B98331B681A80034804B097
:1046F00010BDC046B4A90200802E0020E0F10200E7
:10470000F0B5254B89B004AC0093019404230FF05D
:104710003BFE224F224A3B0098331B6804989A8044
:10472000204B0340062B06D0830730D102681E4B76
:1047300092699A422BD10123039402930026983761
:104740003B68186910F0ECFB3B6860681E610DF077
:10475000B9FE1649050010F0F9FB3B68144A9E713A
:10476000126802999A60227B9981DA71DE81039A3C
:10477000012900D112685A6101221D619A71237AC0
:10478000002B01D0FFF750FF0A4809B0F0BD03AA83
:1047900002A903F05BFDD1E774A90200802E00207E
:1047A00004040000070080FF7501010050F20200C0
:1047B0007C2E0020E0F10200F0B5274B89B004AD5B
:1047C0000195009304230FF0DFFD6B68A868049E39
:1047D00003930DF077FE214F040098373B6818696A
:1047E00010F09EFB00223B681D4920001A6110F06A
:1047F000ADFB802160792D7B0DF00CF9002E1CD1D2
:1048000060790DF07FF9039B002B13DB0022134B23
:10481000144998331B6803989A710968DA71411832
:10482000DA605A61023299601C619A71002D01D0E0
:10483000FFF7FAFE0C4809B0F0BD31000B4815F047
:104840005FFB0DF0C3F80028DDD060790DF05AF958
:104850000748FCF70DFBC04694A90200802E0020FB
:1048600050F202007C2E0020E0F1020040420F00D6
:104870005311030010B5182023F05CF9064B983350
:104880001860064B0360064B83800023837103612D
:104890004361044810BDC046802E0020780004000B
:1048A00004040000E0F10200F0B56E4D87B02E0068
:1048B00098363368002B15D09A79002A12D06A4CAA
:1048C0009968226891420DD89A79022A0CD11B6905
:1048D000002158790DF09EF8236832680A339360FE
:1048E0000123937107B0F0BD9A79012AFAD19A8910
:1048F000D989914204D3DC79002C19D00021D981C7
:104900005869012A02D0DA8992001058574A904219
:1049100015D11B690021587998350DF07BF82C686A
:104920005348218815F076FB0123A060A371D9E7D5
:1049300018699C7110F0F4FA33681C61D2E705A97C
:104940000BF046F998352B6880211B690190587946
:104950000293059E0DF05EF8019B2D681F781F23C2
:10496000298843481F4015F055FB698815F052FB14
:104970007C1EE4B20390012E5BD9019B5B78232B54
:104980004ED0622B51D1002C4CD0023FFCB2621EA3
:1049900053425A415242022E4FD001210223019824
:1049A000C05C3A2803D00F2738402871013328799A
:1049B00084469E420ED90198C05C3A280AD1581C00
:1049C000864207D9019F0233385C0F2738409E4248
:1049D00036D86871092C3ED86346043B9A1852B207
:1049E000244B6400002900D1234B185B002A2FDBE5
:1049F00010410CF0EBFF1B4B039A98331B6858795E
:104A000042431000184A0A3812680A2800DA0A20BD
:104A10008018DA8998600132DA8102229A7161E79E
:104A20000022B8E722000624B5E7002101230A008E
:104A3000B5E7002101230A00B9E733000121B6E7F9
:104A40000A267043019E6871F65C3E408019C0E7FB
:104A500052429040CDE7029B002158790CF0DAFFDA
:104A6000C9E7C046802E00207C2E0020E0F1020025
:104A700060EA000030030300220303008022044B9D
:104A800052001A600123034A1360034A13607047FF
:104A900000E100E00C8C0040008000408022054BCB
:104AA0005200DA67044BFF3A5A600022034B1A6047
:104AB0007047C04604E100E0008000400C8C0040DC
:104AC00070B5002501261E4B1E4C1D601E4B186044
:104AD0001E4BE650C046FFF7E1FF1D4B1D4AE66046
:104AE000E25002221C4BFF20E5500433E250083311
:104AF0009218E250C12380229B001203E250053B32
:104B0000FF3BE550C2244022144BA40019598143B5
:104B10000A4380211A510C341A5909061202120A4A
:104B20000A431A51C0220434195981430A431A51C5
:104B3000802212041A60802252041A6070BDC0469E
:104B40007C2E00200080004068010020FC0F000047
:104B50004C050000701700000405000000E100E0B3
:104B600070B51F4C1F4D636C002B0AD0002363648B
:104B70001D4B1B689847A823DB00EA5800018018EA
:104B8000E850A36C002B09D00023A364164B5B688C
:104B90009847164B0001EA588018E850E36C002B48
:104BA0000AD00023E364104B9B689847A923DB00DD
:104BB000EA5800018018E850236D002B0ED0002326
:104BC0000B4A2365AB580B495B18AB500A4A136874
:104BD000063313608022094B12045A6070BDC04630
:104BE000FC800040008000400800002044050000D8
:104BF0004C050000701700007C2E0020FCE100E056
:104C0000F7B50191032823D8134B8000C758C2235E
:104C1000124C9B00E750012301190B64A8230F25B8
:104C20000F4EDB00CB58A659921BD218D3172B403E
:104C30009A18019D0B4B1211C550C1239B00E750E0
:104C4000A8230020013212019619DB00CE50FEBDD0
:104C500001204042FBE7C0460CAA02000080004051
:104C60004C0500000800002003280BD8074B8000EB
:104C7000C158C223064A9B00D150064B064AC25077
:104C80000020704701204042FBE7C0460CAA02000A
:104C90000080004008000020372B020010B5024BB6
:104CA0001B68984710BDC0466801002070B50025FC
:104CB000054C2368002B02D0002222609847013562
:104CC0000434042DF5D170BD58010020074A890035
:104CD00003008858002805D18B508022044B5204D1
:104CE0005A60704701204042FBE7C046580100204F
:104CF000FCE100E0F0B5486887B00F0003F002FA6D
:104D0000041E02DA0020FCF7B3F8BB68164A0193D0
:104D10009D186B1E9D41010002A81FF021FE049EFC
:104D20002200002130001BF0FFFE3868EDB2C307FF
:104D30000AD433002200290022F071FE02A90B4898
:104D40000AF0BAFA07B0F0BD43102000042C00D9D5
:104D500004200749019F00228F4200D0221A290017
:104D6000B2181DF0A1FDE9E75AECFFFF90D3020055
:104D7000A6130000F0B50C0087B0012203A96068FB
:104D800003F07EFBA3681449039A8B420DD10126E0
:104D9000049976424C1E01911419049900200D00CB
:104DA000002D05D122F089FE0EE014000126F4E763
:104DB0008027013DFF03B84208D308481B18581E3E
:104DC0008341D8B222F01CFE07B0F0BD2778000264
:104DD0003843A419E4E7C046A61300005AECFFFFCD
:104DE00070B546007508041C291C281C16F0C2F971
:104DF000002811D11949281C16F0BCF900280ED141
:104E00001649281C15F04CFA002808D114491548F9
:104E100022F08CFD00F0AEF91348FCF729F8002CC5
:104E200010DA002E06D0FF23DB05E3189C22D20502
:104E300093420AD8201C16F0B3F90125400005431F
:104E4000280070BDE30DDB05F0E70FF073FE211CB9
:104E50000500043021F0A8FFF2E7C046FFFF7F7F86
:104E60006111030058EE02007A110300F0B50D0045
:104E7000002685B0110028001C0032000223009695
:104E80000FF052FA0120B5422ED0854234D120686D
:104E90000540E9B2B14227D1032302001A4018426B
:104EA00003D11C4B016899421ED01B4B0340062BBB
:104EB00006D0002A0DD10268184B92699A4208D197
:104EC00003A90AF085FE00231A00039900F084FC70
:104ED0000AE0032302001A40022A07D1FF22D2056A
:104EE00080189843FFF77CFF05B0F0BD03F00AF986
:104EF000012340001843F7E703A920680AF068FE81
:104F000005006068039F03F0FDF8330002003900DC
:104F10002800DBE758AA0200070080FF75010100A6
:104F2000F8B51F000C4B15005B18013B197814F005
:104F3000E7FF00260400B74204D00321013014F03B
:104F4000DFFF06002B1E03D028001CF0BFF8030073
:104F5000E01C8019C018F8BD93110300F0B58DB0A6
:104F60000A9214AA177815AA127805000C00079265
:104F7000DA0744D55A100492002B5CDB0023069319
:104F80002020079B139A1299FFF7CAFF2368059008
:104F9000834204D222F0CEFD059B286023600022CC
:104FA0002E68059BF418631E1A70049A002A47D0D5
:104FB0000A3F099308930B97049F1299380015F044
:104FC00025F80B0004903033092901D90B9B5B189D
:104FD000089A541E2370079B002B4DD0129B9F42B2
:104FE00031D3A6422FD2099B1B1B032B05D1079B54
:104FF000013C2370A64226D209940894DCE79A0764
:1050000012D1274A196891420ED1079A21000392C2
:10501000139A02970192129A00920A9A22F0C6FC01
:10502000040020000DB0F0BD00232A6813700A9A16
:105030002C681360F5E7049B5B4204932D239EE7E5
:105040003023023C2370139B002B05D018001CF06A
:105050003DF8201A864220D3069B002B04D0B44290
:1050600002D9069B013C23702868059BC018001BD1
:105070000A9B01381860D4E7A642E4D2129B9F42F3
:10508000BBD2E0E7C2540133139AD25C002AF9D1B3
:10509000069B0400002BE4D1E6E70023F4E7C046BA
:1050A00058AA0200134B10B5140001229C421CD0D8
:1050B000114B03229C4218D00023072818D10F4817
:1050C000204006280ED0A20712D120680C4A904238
:1050D00008D00C4A904205D00B4A904202D00B4AAD
:1050E000904205D10A0007202100FBF7C9FE03000A
:1050F000180010BD54D902005CD90200070080FFDF
:1051000028F4020090D302005C9F020078BB0200EA
:1051100010B50400082022F00DFD024B036044602E
:1051200010BDC04694AA0200C46005614661876153
:105130004146C16149460162514641625946816218
:105140006946C162714681600049084755510000B7
:105150000020C046024B9A680260986000207047A9
:10516000802E0020024B9A6812689A607047C046F1
:10517000802E00200E4A9368002B01D11EF053FAB6
:10518000196858609160181CC46805694669876988
:10519000C1698846016A8946416A8A46816A8B46A6
:1051A000C16A8D4681688E4601207047FEE7C04681
:1051B000802E00200023F0B52F4E93B0040006A8E7
:1051C0001500336001270191FFF7AEFF2F40031E4A
:1051D00034D1EA062CD511206268A1681FF0B1FF16
:1051E0000400210026680124019A03A80CF04EF95E
:1051F000AB0800223100234003A806F073FD050030
:105200000320FDF705F928001DF006F801204042B3
:10521000FDF7FEF8FFF7A6FF002F24D02100174866
:1052200000F060FA3C000121144800F05BFA1AE03B
:10523000AB06D6D520001DF02FF9D1E70120404262
:10524000FDF7E6F8002F03D001210C4800F04AFAE0
:10525000079802F073FE0A4909F0A4FE041E05D067
:105260003468002FDFD1200013B0F0BD0799054846
:1052700002F0A0FEF5E7C0466C010020A311030078
:1052800048EF020018C3020010B586B02021802428
:1052900002A81FF055FB64001E481DF08BFC002384
:1052A0001D4803931DF086FC00F004FA0128F3D09A
:1052B00002280BD119481DF07DFC02A81FF061FBEC
:1052C00001220020164B1A7006B010BD032802D12F
:1052D00000230393E8E7042804D0C1B202A81FF01A
:1052E0008DFBE1E70F481DF065FC039B0193002B4C
:1052F00008D10A481DF05EFC02A81FF042FB802086
:105300004000E1E71122012102A8FFF753FF2042EC
:10531000C5D0D9E7A51103008B5303004B0E030042
:10532000DA0000208C0A030030B587B020218025E8
:1053300002A81FF005FB6D0038481DF03BFC384803
:105340001DF038FC0024374902A803941EF0D8FA57
:1053500001280AD134481DF02DFC02A81FF011FBD2
:105360002000324B1C7007B030BD022803D12E48FC
:105370001DF020FCE0E7032801D12B48E0E70428DA
:1053800008D129481DF016FC02A81FF0FAFA802067
:105390004000E8E7052828D125481DF00BFC0394C0
:1053A00000F088F96B46C1B2D9710329E5D0042910
:1053B0000AD11D481DF0FEFB0121162202A8FFF7AD
:1053C000F9FE2842BED0CEE702A81FF017FB6B46BD
:1053D000DB790D2B03D117481DF0ECFBE0E76B46A2
:1053E0000121D81D00F07EF9DAE7039B002BA9D03C
:1053F00002A81FF0F1FA0CF0D3FB00280BD00A2111
:1054000002A81FF0FBFA0C4902A81EF079FA032843
:10541000B3D00428ECD10021CFE7C046C01103006F
:1054200011120300371203004B0E0300DA000020B4
:105430003C1203006C1203007312030070B50400E9
:105440000D0010491FF0E4FC69680122200002F001
:105450008DFD0D4E200031001FF0DAFCA9680122FD
:10546000200002F083FD310020001FF0D1FCE9682C
:105470000122200002F07AFD200004491FF0C8FC40
:1054800070BDC046781203006F0D03001D180300A5
:1054900070B5060010200D00140022F04BFB034BEA
:1054A000466085600360C46070BDC046D0AA02003B
:1054B000F0B5304B8FB007AE0138009304310723AD
:1054C00001960EF061FF0023B0682B4F0393B842A2
:1054D00003D002F017FEC3B2039370691825B842D7
:1054E00002D021F093FA45B2B0691924B84202D033
:1054F00021F08CFA44B23069B8420DD0022105AADD
:1055000002F0C6FE059B186821F080FA059B45B2A3
:10551000586821F07BFA44B201210E00A022AE406F
:10552000A140164BD205D75815483E430590D6509A
:10553000D6588E43D650134A03218550C4502800B4
:1055400024F0AAFA2000032124F0A6FA079905A85E
:1055500014F0E0F80A9B039A089905A814F0EAF8F9
:105560000799094814F056FD084B0130188002488D
:105570000FB0F0BDA8AB0200E0F10200140500007E
:10558000002000400C050000C8320000BE2D0020A5
:1055900010B500F083F8034B002800D1024B18002F
:1055A00010BDC0465CD9020054D90200F7B50D0009
:1055B00014001E00002A07D000F070F8002805D162
:1055C0000B230124336064422000FEBD2E00013C09
:1055D000641900F06FF83300307001369C420FD030
:1055E000084B1B8801931DF00AFB070000F056F8DA
:1055F0000028EED11DF003FB019BC01B8342F5D8B0
:10560000741BE1E7BE2D002010B50400034B0360BE
:10561000403022F0FAFD200010BDC046F4AD02007B
:1056200010B50F4C200024F012F8002808D02000FC
:1056300023F0DEFF0B4B1B68984202D1FCF7F6FE0D
:1056400010BD3F21084A138801330B4007490988E0
:105650008B42F5D01188064C13806054F0E7C046A9
:1056600070010020782E0020C02D0020C22D0020C7
:10567000D92D0020002210B5044B05491A80054B96
:1056800005481A8023F0E8FF10BDC046C02D002059
:1056900021560000C22D002070010020034B188805
:1056A000034B1B88C01A431E98417047C22D00202F
:1056B000C02D0020084A094B10881988884201D162
:1056C00030BFF9E713880649C85C3F2113880133CE
:1056D0000B4013807047C046C22D0020C02D002013
:1056E000D92D002070B504004518AC4205D02178B2
:1056F000024823F081FF0134F7E770BD70010020FC
:1057000070B504004518AC420DD02378064E0A2B24
:1057100003D10D21300023F06FFF2178300023F0FA
:105720006BFF0134EFE770BD7001002070B504001D
:105730000825002C08D02100082C00D92900034896
:10574000641AFFF7CFFFF4E770BDC0467F12030075
:1057500070B5050004000826002C08D02100082C94
:1057600000D931000448641AFFF7BCFFF4E72800B1
:10577000FFF7DCFF70BDC0468812030010B50100C2
:10578000014820F05DFA10BD30000020142313B54D
:10579000064C009319221821200012F0A5F82000D1
:1057A000034A044924F039FA13BDC04670010020B1
:1057B000000000200956000010B50400002906D0A2
:1057C000044B8A6B0360096800230EF063FD200020
:1057D000FFF7D0FC0CEF0200F0B587B00400039295
:1057E00002934618002A06D0023A222A03D93548E5
:1057F000FBF73EFB0134B44229D2207800F09AF93D
:10580000071EF7D123782B2B1CD101342000311B2C
:1058100003AA20F006FB23181C0000250193B442C4
:1058200017D3002F00D06D4201206D000543019B6E
:105830009C422FD12449039A24480EF0BDFC0299C2
:10584000FFF7BAFF2D2BE1D101270134DEE7002756
:10585000DCE723781A00303A0092092A07D920227F
:1058600013431A00613A192ADBD8573B0093039976
:10587000009B9942D5D928000BF0D8FC002816D1FE
:10588000039B5D43009BED186B006B400FD401340C
:10589000C5E70134B44205D2207800F04BF9002866
:1058A000F7D1C7E7B442C5D1280007B0F0BD019BCE
:1058B0003A000593F11A05A8039B22F009F9059C0B
:1058C0000500B4E791120300B4120300FCEF0200DC
:1058D000F0B504008BB00893431804920193019B28
:1058E0009C4200D309E1207800F024F9071E38D14A
:1058F00023782B2B37D101340590019B9C4200D398
:10590000FDE0202322781A43692A33D10199A21C91
:10591000914200D8EAE062781A436E2A00D0E5E0AE
:10592000A2781A43662A00D0E0E0E21DE51C91420D
:1059300014D9E2781A43692A10D122791A436E2ABF
:105940000CD162791A43692A08D1A2791A43742AC0
:1059500004D1E2791343792B00D10535FF26F605F2
:105960001BE00134BBE705902D2BCAD12C3B013441
:105970000593C2E76E2A1AD10199A21C914200D860
:10598000B4E062781A43612A00D0AFE0A2781343F2
:105990006E2B00D0AAE0604EE51C059B002B02D0C8
:1059A00080231B06F618AC427FD15C4990E00022B0
:1059B000079203925A4A250006920022002602927C
:1059C00009932B786F1C1800303809282CD8029BBB
:1059D000022B0AD1039A083353431B180393019BEC
:1059E000BB4200D894E03D00EBE715F03FFC029B82
:1059F000051C012B0DD1069915F0DAF8011C301C9D
:105A000014F070FD4649061C069815F0D1F8069072
:105A1000E5E74449301C15F0CBF8291C14F062FD71
:105A20000023061C0293DAE7029A002A03D12E2BE8
:105A300004D10123F6E7029A022A17D0099A1A43E1
:105A4000652A13D1019BBB425ED96B782B2B05D104
:105A5000AF1C019B9F42A8D00223E3E702220292DF
:105A60002D2BC0D12C3BAF180793F2E7049A002AE4
:105A700004D0202213436A2B13D13D00079B002B37
:105A800002D0039B5B420393039815F0A9FB011C12
:105A9000244817F077FF311C15F08AF8049F061C84
:105AA0007BE700230493E9E70135019B9D4205D282
:105AB000287800F03FF80028F6D176E7019B9D4258
:105AC00000D072E7089B002B01D1002F06D01649A9
:105AD000164821F02BFF1099FFF76EFE03230220DA
